{
    "contractName": "Identity",
    "abi": [
        {
            "inputs": [],
            "stateMutability": "nonpayable",
            "type": "constructor"
        },
        {
            "inputs": [],
            "name": "getage",
            "outputs": [
                {
                    "internalType": "uint256",
                    "name": "",
                    "type": "uint256"
                }
            ],
            "stateMutability": "view",
            "type": "function"
        },
        {
            "inputs": [],
            "name": "getname",
            "outputs": [
                {
                    "internalType": "string",
                    "name": "",
                    "type": "string"
                }
            ],
            "stateMutability": "view",
            "type": "function"
        }
    ],
    "bytecode": "608060405234801561001057600080fd5b50604080518082019091526005815264416268617960d81b602082015260009061003a90826100e4565b5060156001556101a3565b634e487b7160e01b600052604160045260246000fd5b600181811c9082168061006f57607f821691505b60208210810361008f57634e487b7160e01b600052602260045260246000fd5b50919050565b601f8211156100df57600081815260208120601f850160051c810160208610156100bc5750805b601f850160051c820191505b818110156100db578281556001016100c8565b5050505b505050565b81516001600160401b038111156100fd576100fd610045565b6101118161010b845461005b565b84610095565b602080601f831160018114610146576000841561012e5750858301515b600019600386901b1c1916600185901b1785556100db565b600085815260208120601f198616915b8281101561017557888601518255948401946001909101908401610156565b50858210156101935787850151600019600388901b60f8161c191681555b5050505050600190811b01905550565b6101b6806101b26000396000f3fe608060405234801561001057600080fd5b50600436106100365760003560e01c8063b3f2e4711461003b578063c6ea59b914610051575b600080fd5b6001546040519081526020015b60405180910390f35b610059610066565b60405161004891906100f8565b60606000805461007590610146565b80601f01602080910402602001604051908101604052809291908181526020018280546100a190610146565b80156100ee5780601f106100c3576101008083540402835291602001916100ee565b820191906000526020600020905b8154815290600101906020018083116100d157829003601f168201915b5050505050905090565b600060208083528351808285015260005b8181101561012557858101830151858201604001528201610109565b506000604082860101526040601f19601f8301168501019250505092915050565b600181811c9082168061015a57607f821691505b60208210810361017a57634e487b7160e01b600052602260045260246000fd5b5091905056fea264697066735822122074fabb3bc371c556524b3b9cab0829b98bd74dac836c7c00045183b9c155bc1a64736f6c63430008110033",
    "sourcePath": "f:/Blockchain/SolidityLearning/Identiy.sol",
    "compiler": {
        "name": "solc",
        "version": "0.8.17+commit.8df45f5f"
    },
    "functionHashes": {
        "getage()": "b3f2e471",
        "getname()": "c6ea59b9"
    },
    "gasEstimates": {
        "creation": {
            "codeDepositCost": "87600",
            "executionCost": "infinite",
            "totalCost": "infinite"
        },
        "external": {
            "getage()": "2247",
            "getname()": "infinite"
        }
    }
}